:100000000C9462000C948A000C948A000C948A0070
:100010000C948A000C948A000C948A000C948A0038
:100020000C948A000C948A000C948A000C948A0028
:100030000C948A000C948A000C948A000C948A0018
:100040000C94B6090C948A000C9484090C945E09F3
:100050000C948A000C948A000C948A000C948A00F8
:100060000C94000A0C948A00000000002400270071
:100070002A0000000000250028002B0000000000DE
:1000800023002600290004040404040404040202DA
:100090000202020203030303030301020408102007
:1000A0004080010204081020010204081020000012
:1000B0000008000201000003040700000000000027
:1000C00000001B0B11241FBECFEFD8E0DEBFCDBF59
:1000D00024E0A4E5B3E001C01D92AB3AB207E1F71A
:1000E00013E0A0E0B1E0E0EAFEE102C005900D926D
:1000F000A435B107D9F710E0C2E6D0E004C02197DB
:10010000FE010E94560DC136D107C9F70E94630B4C
:100110000C944E0F0C9400008230910538F0880F3B
:10012000991F880F991F05970197F1F70895DB0133
:1001300014964D915C9115976D917C91DC01ED9138
:10014000FC910280F381E02D0994AF92BF92CF928F
:10015000DF92EF92FF920F931F93CF93DF936C0187
:100160007B018B01040F151FEB015E01AE18BF0868
:10017000C017D10759F06991D601ED91FC9101901A
:10018000F081E02DC6010995892B79F7C501DF9132
:10019000CF911F910F91FF90EF90DF90CF90BF9084
:1001A000AF900895FC01538D448D252F30E0842FAE
:1001B00090E0821B930B541710F0CF96089501978F
:1001C0000895FC01918D828D981761F0A28DAE0F7C
:1001D000BF2FB11D5D968C91928D9F5F9F73928F03
:1001E00090E008958FEF9FEF0895FC01918D828D2F
:1001F000981731F0828DE80FF11D858D90E00895FC
:100200008FEF9FEF0895FC01918D228D892F90E053
:10021000805C9F4F821B91098F739927089582EF0D
:1002200093E00E94030121E0892B09F420E0822F52
:10023000089580E090E0892B29F00E940F01811140
:100240000C9400000895FC01A48DA80FB92FB11DD6
:10025000A35ABF4F2C91848D90E001968F739927FC
:10026000848FA689B7892C93A089B1898C918370DA
:1002700080648C93938D848D981306C00288F389D3
:10028000E02D80818F7D80830895EF92FF920F9300
:100290001F93CF93DF93EC0181E0888F9B8D8C8D32
:1002A00098131AC0E889F989808185FF15C09FB726
:1002B000F894EE89FF896083E889F98980818370E9
:1002C000806480839FBF81E090E0DF91CF911F9198
:1002D0000F91FF90EF900895F62E0B8D10E00F5FB9
:1002E0001F4F0F731127E02E8C8D8E110CC00FB68F
:1002F00007FCFACFE889F989808185FFF5CFCE0127
:100300000E942301F1CFEB8DEC0FFD2FF11DE35A7D
:10031000FF4FF0829FB7F8940B8FEA89FB898081A9
:100320008062CFCFCF93DF93EC01888D8823B9F023
:10033000AA89BB89E889F9898C9185FD03C08081F0
:1003400086FD0DC00FB607FCF7CF8C9185FFF2CF6D
:10035000808185FFEDCFCE010E942301E9CFDF919F
:10036000CF910895833081F028F4813099F0823064
:10037000A9F008958730A9F08830C9F08430B1F42D
:10038000809180008F7D03C0809180008F77809363
:100390008000089584B58F7784BD089584B58F7DDE
:1003A000FBCF8091B0008F778093B000089580914B
:1003B000B0008F7DF9CFCF93DF93282F30E0F90184
:1003C000E255FF4F8491F901E656FF4FD491F901B0
:1003D000EA57FF4FC491CC23A1F081110E94B201D2
:1003E000EC2FF0E0EE0FFF1FE458FF4FA591B49102
:1003F000EC91ED2381E090E009F480E0DF91CF9172
:10040000089580E090E0FACF1F93CF93DF93282FD9
:1004100030E0F901E255FF4F8491F901E656FF4FB4
:10042000D491F901EA57FF4FC491CC23A9F0162FBC
:1004300081110E94B201EC2FF0E0EE0FFF1FEE5889
:10044000FF4FA591B4918FB7F894EC91111108C0AA
:10045000D095DE23DC938FBFDF91CF911F9108955C
:10046000DE2BF8CFCF93DF9390E0FC01E656FF4FF1
:1004700024918A579F4FFC0184918823D1F090E00A
:10048000880F991FFC01E859FF4FA591B491FC0119
:10049000EE58FF4FC591D49161110EC09FB7F894EB
:1004A0008C91E22FE0958E238C932881E223E883C0
:1004B0009FBFDF91CF9108958FB7F894EC91E22B15
:1004C000EC938FBFF6CF3FB7F8948091EE039091F5
:1004D000EF03A091F003B091F10326B5A89B05C0EE
:1004E0002F3F19F00196A11DB11D3FBFBA2FA92FB3
:1004F000982F8827BC01CD01620F711D811D911DB0
:1005000042E0660F771F881F991F4A95D1F708951B
:100510008F929F92AF92BF92CF92DF92EF92FF9213
:100520006B017C010E9463024B015C01C114D10488
:10053000E104F104B9F00E946302681979098A099B
:100540009B09683E73408105910580F321E0C21A42
:10055000D108E108F10888EE880E83E0981EA11CFE
:10056000B11CE4CFFF90EF90DF90CF90BF90AF90A1
:100570009F908F90089508951F93CF93DF93C1E0CC
:10058000C0935503882399F1D091B8001091BA0017
:100590008091BC008A7B8093BC0060E082E10E9475
:1005A000040260E083E10E9404021092BF03C09342
:1005B000BE031092990361E082E10E94040261E0AF
:1005C00083E10E9404028091B9008E7F8093B9007C
:1005D0008091B9008D7F8093B90088E48093B80042
:1005E00085E48093BC001093BA00D093B800DF91EB
:1005F000CF911F91089520917603260F3327331F43
:1006000021323105ECF42091BF03FC0190E080E041
:10061000243069F082E00895A09176032191AC0125
:100620004A5A5C4FA40FB52FB11D2C930196861723
:1006300098F380917603680F6093760380E00895C5
:1006400081E0089508958FEF9FEF08958FEF9FEF5A
:1006500008958091540390E09195819591090895B2
:10066000CF92DF92EF92FF920F931F93CF93DF937E
:100670007C01CB018A012091C503222389F0EB0183
:100680006B01C40ED51ECC15DD0569F06991D7014B
:10069000ED91FC910190F081E02DC7010995F3CF18
:1006A000642F0E94FB02C801DF91CF911F910F912F
:1006B000FF90EF90DF90CF900895CF93DF931F923C
:1006C000CDB7DEB769832091C5032223F9F02091CD
:1006D000E803203258F021E030E0FC01338322832C
:1006E00090E080E00F90DF91CF9108958091C60354
:1006F000E82FF0E0E953FC4F998190838F5F80935E
:10070000C6038093E80381E090E0ECCF61E0CE0186
:1007100001960E94FB02F7CFCF92DF92EF92FF92F9
:100720000F931F93CF93DF93FC01C48121E02093AB
:10073000C503C093E7031092C6031092E8038385B4
:10074000682B8FE894E00E945D03D091E803D132DA
:1007500008F092C00E9463026B017C018091BF038C
:10076000811165C082E08093BF0381E08093BE0366
:100770008FEF8093BD031092BC03D093BB03A7EC13
:10078000B3E0EBE9F3E080E0D81385C010929A0360
:1007900080919A03CC0FC82BC0939A038091990340
:1007A000813009F07CC0109299030E9463026B01B2
:1007B0007C0180919A038093BB008091C10390914A
:1007C000C203A091C303B091C403892B8A2B8B2B46
:1007D00099F00E9463020091C1031091C20320911D
:1007E000C3033091C4036C197D098E099F09061754
:1007F000170728073907E0F18091BC0083FDD9CFA6
:1008000085EC8093BC000E9463026B017C018091A7
:10081000BF03823009F445C08091BD038F3F61F171
:100820008091BD03803241F18091BD0325C080914C
:10083000C1039091C203A091C303B091C403892B5B
:100840008A2B8B2B09F48ACF0E9463020091C1038B
:100850001091C2032091C3033091C4036C197D0928
:100860008E099F09061717072807390708F076CF62
:100870008091C0030E94BC021092C6031092E8034C
:100880001092C503DF91CF911F910F91FF90EF90D0
:10089000DF90CF9008959D9191938F5F75CF85EEF6
:1008A000B0CF8091C1039091C203A091C303B091D6
:1008B000C403892B8A2B8B2B09F4A9CF0E946302D6
:1008C0000091C1031091C2032091C3033091C4036E
:1008D0006C197D098E099F09061717072807390724
:1008E00008F095CFC5CF90E080E0089561E08AE000
:1008F0000E94040261E083E00E94040261E086E05D
:100900000E94040260E08BE00E94040260E089E043
:100910000E94040260E085E00E9404028CE290E004
:100920000C948C000E94760461E08AE00E9404022C
:1009300061E089E00E94040261E086E00E94040216
:1009400060E08BE00E94040260E083E00E94040209
:1009500060E085E00E9404028EED90E00E948C0031
:1009600061E08AE00E94040261E089E00E940402E2
:1009700061E085E00E94040260E08BE00E940402D6
:1009800060E083E00E94040260E086E00E940402CE
:1009900085E890E00E948C000E94760461E08BE084
:1009A0000E94040261E083E00E94040261E086E0AC
:1009B0000E94040260E08AE00E94040260E089E094
:1009C0000E94040260E085E00E9404028EED90E047
:1009D0000E948C0061E08BE00E94040261E083E0F1
:1009E0000E94040261E085E00E94040260E08AE067
:1009F0000E94040260E089E00E94040260E086E058
:100A00000E94040285E890E00C948C00FC01808137
:100A10009181009711F00C94F80D0895FB0101905D
:100A20000020E9F73197AF01461B570BDC01ED9130
:100A3000FC910280F381E02D0994CF93DF93BC01F8
:100A400082EF93E00E949700EC016EE371E082EF89
:100A500093E00E940E058C0F9D1FDF91CF910895AA
:100A60008F929F92AF92BF920F931F93CF93DF937A
:100A7000CDB7DEB7A1970FB6F894DEBF0FBECDBFDE
:100A800019A2423008F44AE08E010F5D1F4F842EF8
:100A9000912CB12CA12CA50194010E94340DE62FBC
:100AA000B901CA01EA3004F5E05DD801EE938D0189
:100AB000232B242B252B79F790E080E0109729F049
:100AC000BD0182EF93E00E940E05A1960FB6F89447
:100AD000DEBF0FBECDBFDF91CF911F910F91BF90B1
:100AE000AF909F908F900895E95CDFCFCF93DF9315
:100AF000672B89F4682F82EF93E00E944501EC0197
:100B00006EE371E082EF93E00E940E058C0F9D1F53
:100B1000DF91CF910895BC01990F880B990B41E0AB
:100B20000E943005ECCFEF92FF920F931F93CF936B
:100B3000DF93EC017B01198218821B821A821D82CD
:100B40001C82FB0101900020E9F731978F01061B01
:100B5000170BB8016F5F7F4F90E080E00E94810E1D
:100B60000097B9F0998388831B830A832C813D8188
:100B7000232B11F4FC0110821D830C83B7018881A3
:100B80009981DF91CF911F910F91FF90EF900C947D
:100B9000470F88819981009711F00E94F80D198202
:100BA00018821D821C821B821A82DF91CF911F91B5
:100BB0000F91FF90EF9008950F931F93CF938C01A7
:100BC000C62F64600E948C036C2F6B7FC8010E944B
:100BD0008C0383EC90E00197F1F7CF911F910F9177
:100BE0000895FF920F931F93CF93DF938C01D62F1D
:100BF000C42F862F807FF82EF42A6F2DC8010E9403
:100C00008C036F2DC8010E94DC0580E1D89FB001E4
:100C10001124C62B6C2FC8010E948C036C2FC801B5
:100C2000DF91CF911F910F91FF900C94DC05CF9332
:100C3000DF93CDB7DEB728970FB6F894DEBF0FBEAF
:100C4000CDBF98E0E6E0F1E0DE01119601900D9253
:100C50009A95E1F79091A304981710F48FEF890FFC
:100C600090E0880F991F21E030E02C0F3D1F820F8C
:100C7000931FFC016081606840E08BE994E0289656
:100C80000FB6F894DEBF0FBECDBFDF91CF910C94AD
:100C9000F105CF92DF92EF92FF920F931F93CF93C4
:100CA000DF936C017B018A01E90140E061E08BE99F
:100CB00094E00E94F1058BE39FE10197F1F780E05A
:100CC0000E941706B6018BE994E00E94970081E02C
:100CD0000E941706B7018BE994E00E94970082E01A
:100CE0000E941706B8018BE994E00E94970083E008
:100CF0000E941706BE018BE994E0DF91CF911F910E
:100D00000F91FF90EF90DF90CF900C949700DF92BF
:100D1000EF92FF920F931F93CF93DF93CDB7DEB780
:100D200068970FB6F894DEBF0FBECDBFD82E1C8AD1
:100D30001B8A1E8A1D8A188E1F8A89831A82CE01F9
:100D400001967C01FC0101900020E9F731978F01A9
:100D5000081B190BB8016F5F7F4F90E080E00E9485
:100D6000810E009781F09C8B8B8B1E8B0D8B2F89B6
:100D7000388D232B11F4FC011082188F0F8BB701D3
:100D80000E94470F0CC08B899C89009711F00E942C
:100D9000F80D1C8A1B8A188E1F8A1E8A1D8A61E420
:100DA00071E0CE010D960E94930567E472E0CE01DA
:100DB00007960E9493056BE471E0C7010E949305BA
:100DC0009E012D5E3F4FAE01435F5F4FBE01695FE5
:100DD0007F4FC7010E944906C7010E940605CE0148
:100DE00007960E940605CE010D960E940605CE01CB
:100DF00043960E9406056D2D0D2C000C770B685A4A
:100E00007E4F82EF93E00E940E056EE371E082EF69
:100E100093E00E940E0561E08D2D0E94040200E423
:100E20001FE10E94920401501109D9F760E08D2D55
:100E30000E94040268960FB6F894DEBF0FBECDBFC5
:100E4000DF91CF911F910F91FF90EF90DF90089568
:100E5000EF92FF920F931F93CF93DF93CDB7DEB73F
:100E600068970FB6F894DEBF0FBECDBF8EE00E942C
:100E7000DB017C018FE00E94DB018C01E114F104B5
:100E800009F4ABC0892B09F039C165E771E0CE01E7
:100E900001960E949305CE0101960E941D05CE0188
:100EA00001960E94060570E060E081E090E00E94FB
:100EB00076058EE00E94DB017C018FE00E94DB0161
:100EC0008C0160E471E0CE0143960E9493056AE9CB
:100ED00071E0CE010D960E94930567EA71E0CE01A4
:100EE00007960E94930565EB71E0CE0101960E9482
:100EF00093059E012D5E3F4FAE01435F5F4FBE01E4
:100F0000695F7F4FCE0101960E944906CE0101968E
:100F10000E940605CE0107960E940605CE010D9699
:100F20000E940605CE0143960E940605EF2809F4AB
:100F300042C0012B09F09ACF68EC71E0CE014396D4
:100F40000E9493056FEC71E0CE010D960E9493050F
:100F50006BED71E0CE0107960E9493056BE471E0A2
:100F6000CE0101960E9493059E012D5E3F4FAE017A
:100F7000435F5F4FBE01695F7F4FCE0101960E94C4
:100F80004906CE0101960E940605CE0107960E94F1
:100F90000605CE010D960E940605CE0143960E94DD
:100FA000060505E110E00E94920401501109D9F7ED
:100FB0000E94D60805C0012B09F458CF0E942807CB
:100FC00068960FB6F894DEBF0FBECDBFDF91CF910C
:100FD0001F910F91FF90EF900895892B09F48EC017
:100FE00061E070E090E080E00E9476058EE00E9473
:100FF000DB017C018FE00E94DB018C0160E471E089
:10100000CE0143960E9493056AE971E0CE010D96E8
:101010000E94930567EA71E0CE0107960E9493054E
:1010200060EF71E0CE0101960E9493059E012D5E56
:101030003F4FAE01435F5F4FBE01695F7F4FCE01FF
:1010400001960E944906CE0101960E940605CE0136
:1010500007960E940605CE010D960E940605CE0158
:1010600043960E940605EF2809F4A5CF012B09F04D
:10107000FDCE65E072E0CE0101960E949305CE019F
:1010800001960E941D05CE0101960E9406058DE085
:101090000E94870668EE73E080E090E00E9488027C
:1010A0008CE00E94870668EE73E080E090E00E948A
:1010B000880288E00E94870668EE73E080E090E096
:1010C0000E94880287E00E94870668EE73E080E055
:1010D00090E00E94880284E00E94870668EE73E038
:1010E00080E090E00E94880282E00E94870668EE1D
:1010F00073E080E090E00E9488025ACF68E372E0DB
:10110000CE0101960E949305CE0101960E941D0515
:10111000CE0101960E94060561E070E0012B11F4FA
:1011200070E060E081E090E0EF2811F490E080E072
:101130000E94760565E472E0CE0143960E94930515
:1011400069E572E0CE010D960E9493056AEB72E0AC
:10115000CE0107960E9493056AE672E0CE010196E1
:101160000E9493059E012D5E3F4FAE01435F5F4F8E
:10117000BE01695F7F4FCE0101960E944906CE01F4
:1011800001960E940605CE0107960E940605CE0133
:101190000D960E940605CE0143960E94060568EE54
:1011A00073E080E090E00E94880260CECF93DF93EE
:1011B000CDB7DEB768970FB6F894DEBF0FBECDBFD0
:1011C00063E772E0CE0143960E9493056CE772E0FC
:1011D000CE010D960E94930560E471E0CE01079662
:1011E0000E94930569E872E0CE0101960E94930582
:1011F0009E012D5E3F4FAE01435F5F4FBE01695FB1
:101200007F4FCE0101960E944906CE0101960E94B1
:101210000605CE0107960E940605CE010D960E9496
:101220000605CE0143960E9406050E94280768968F
:101230000FB6F894DEBF0FBECDBFDF91CF910895FA
:1012400041E00E94F10581E090E0089585ED8093F2
:10125000BC008091C1039091C203A091C303B091DF
:10126000C4030796A11DB11D23E0B695A7959795D8
:1012700087952A95D1F72091BC0024FD03C01092D8
:10128000BF0308954091C1035091C2036091C3030D
:101290007091C403452B462B472B69F30097A1059A
:1012A000B10541F025E32A95F1F700000197A10966
:1012B000B109E1CF8091C0030C94BC021F920F9240
:1012C0000FB60F9211242F933F934F935F936F9319
:1012D0007F938F939F93AF93BF93EF93FF9382EF8F
:1012E00093E00E942301FF91EF91BF91AF919F91F5
:1012F0008F917F916F915F914F913F912F910F90BF
:101300000FBE0F901F9018951F920F920FB60F925D
:1013100011242F938F939F93EF93FF93E0910204F7
:10132000F09103048081E0910804F091090482FDAA
:101330001BC0908180910B048F5F8F7320910C04F0
:10134000821741F0E0910B04F0E0EE50FC4F958FD6
:1013500080930B04FF91EF919F918F912F910F90AC
:101360000FBE0F901F9018958081F4CF1F920F929F
:101370000FB60F9211242F933F938F939F93AF93A8
:10138000BF938091EA039091EB03A091EC03B0919D
:10139000ED033091E90323E0230F2D3758F5019633
:1013A000A11DB11D2093E9038093EA039093EB0301
:1013B000A093EC03B093ED038091EE039091EF03C3
:1013C000A091F003B091F1030196A11DB11D80938E
:1013D000EE039093EF03A093F003B093F103BF915A
:1013E000AF919F918F913F912F910F900FBE0F90D2
:1013F0001F90189526E8230F0296A11DB11DD2CF8C
:101400001F920F920FB60F9211242F933F934F9379
:101410005F936F937F938F939F93AF93BF93EF935C
:10142000FF938091B900887F803609F44AC0F0F5B7
:10143000883209F4A5C018F5803109F499C0B8F4D0
:10144000882309F4F5C0883009F492C0FF91EF9128
:10145000BF91AF919F918F917F916F915F914F91CC
:101460003F912F910F900FBE0F901F9018958831CC
:1014700009F486C0803251F78093BD0314C08034D4
:1014800009F49BC040F48033B9F38833F9F68093B4
:10149000BD0385ECAEC0803509F483C0883509F4FE
:1014A00094C0883499F60E942609D0CF883909F46F
:1014B0008AC038F5883729F050F4883611F0803723
:1014C00029F683E08093BF031092980355C08838B3
:1014D00009F479C0803919F0803809F0B7CF8091CC
:1014E0009803803208F06FC0E091980381E08E0F7E
:1014F000809398038091BB00F0E0E858FC4F808314
:101500003BC0803B39F0D0F4803A09F477C0883A88
:1015100009F09CCF84E08093BF0310927703109270
:101520007603F0E0E0E009958091760381110FC029
:1015300081E0809376031092560309C0803C09F441
:10154000A8CF883C09F4A5CF883B09F07FCFE09174
:10155000770381E08E0F80937703F0E0EA5AFC4F27
:1015600080818093BB00909177038091760329C09E
:1015700080919A038093BB0085EC8093BC0066CF7A
:101580009091BC038091BB03981758F5E091BC0380
:1015900081E08E0F8093BC03F0E0E556FC4F808124
:1015A000E9CFE091BC0381E08E0F8093BC03809172
:1015B000BB00F0E0E556FC4F80839091BC03809126
:1015C000BB039817C8F285E8D8CFE091BC0381E04F
:1015D0008E0F8093BC038091BB00F0E0E556FC4F7A
:1015E00080838091BE0381115ECF81E08093990357
:1015F00084EA8093BC001092BF0328CF85EC8093CF
:10160000BC001092BF0380919803803230F4E091C7
:101610009803F0E0E858FC4F10826091980370E066
:1016200088E793E0F0E0E0E00995109298030ECF90
:101630001092BD0338CFE2EFF3E01382128288EEFE
:1016400093E0A0E0B0E084839583A683B78322E192
:1016500031E03183208325EC30E03587248724EC8A
:1016600030E03787268720EC30E0318B208B21EC6F
:1016700030E0338B228B22EC30E0358B248B26EC50
:1016800030E0378B268B118E128E138E148EEFE87E
:10169000F4E01382128284839583A683B78384E265
:1016A00091E091838083EBE9F4E01382128286E378
:1016B00091E09183808380E2848384E1818784E068
:1016C000828713860895CF93DF93CDB7DEB76897EF
:1016D0000FB6F894DEBF0FBECDBF789484B582609C
:1016E00084BD84B5816084BD85B5826085BD85B5C6
:1016F000816085BD80916E00816080936E00109244
:1017000081008091810082608093810080918100BE
:10171000816080938100809180008160809380004F
:101720008091B10084608093B1008091B0008160AD
:101730008093B00080917A00846080937A008091D9
:101740007A00826080937A0080917A008160809331
:101750007A0080917A00806880937A001092C100AC
:10176000E0910204F091030482E08083E091FE03A3
:10177000F091FF031082E0910004F09101048FECDE
:10178000808310920A04E0910604F091070486E039
:101790008083E0910404F09105048081806180835E
:1017A000E0910404F0910504808188608083E091D9
:1017B0000404F0910504808180688083E091040432
:1017C000F091050480818F7D808382E390E0A0E02A
:1017D000B0E08093F6039093F703A093F803B093DF
:1017E000F9036CE972E082EF93E00E940E056EE36C
:1017F00071E082EF93E00E940E0561E08AE00E94B2
:10180000320261E08BE00E94320261E083E00E94DC
:10181000320261E089E00E94320261E086E00E94CB
:10182000320261E085E00E94320261E08DE00E94B8
:10183000320261E08CE00E94320261E088E00E94A6
:10184000320261E087E00E94320261E084E00E949F
:10185000320261E082E00E94320280E00E941706BC
:1018600061EB72E08BE994E00E940E0560E08EE08F
:101870000E94320260E08FE00E94320200E010E03D
:1018800066EC72E0CE0101960E949305BE016F5F87
:101890007F4F82EF93E00E9497006EE371E082EF4A
:1018A00093E00E940E05CE0101960E94060564ECAD
:1018B00079E080E090E00E94880269ED72E0CE015C
:1018C00001960E949305CE0101960E941D05CE014E
:1018D00001960E94060560E471E0CE0143960E94E5
:1018E000930560E471E0CE010D960E94930562EFCE
:1018F00072E0CE0107960E9493056CEF72E0CE0174
:1019000001960E9493059E012D5E3F4FAE01435FFD
:101910005F4FBE01695F7F4FCE0101960E9449066D
:10192000CE0101960E940605CE0107960E9406058B
:10193000CE010D960E940605CE0143960E94060533
:1019400064EC79E080E090E00E94880267E073E058
:10195000CE0101960E949305CE0101960E941D05BD
:10196000CE0101960E9406056EE273E0CE01439619
:101970000E94930568E373E0CE010D960E949305E3
:1019800060E471E0CE0107960E94930560E473E085
:10199000CE0101960E9493059E012D5E3F4FAE0140
:1019A000435F5F4FBE01695F7F4FCE0101960E948A
:1019B0004906CE0101960E940605CE0107960E94B7
:1019C0000605CE010D960E940605CE0143960E94A3
:1019D000060564EC79E080E090E00E9488020E94B5
:1019E00028070115110509F44BCF0E940F01882328
:1019F00009F446CF0E94000043CF2F923F924F92AE
:101A00005F926F927F928F929F92AF92BF92CF928E
:101A1000DF92EF92FF920F931F93CF93DF93CDB797
:101A2000DEB7CA1BDB0B0FB6F894DEBF0FBECDBF0F
:101A300009942A88398848885F846E847D848C84E0
:101A40009B84AA84B984C884DF80EE80FD800C81E9
:101A50001B81AA81B981CE0FD11D0FB6F894DEBFCC
:101A60000FBECDBFED010895A1E21A2EAA1BBB1B2C
:101A7000FD010DC0AA1FBB1FEE1FFF1FA217B3075A
:101A8000E407F50720F0A21BB30BE40BF50B661F70
:101A9000771F881F991F1A9469F760957095809534
:101AA00090959B01AC01BD01CF010895EE0FFF1F82
:101AB0000590F491E02D09940F931F93CF93DF933A
:101AC0008230910510F482E090E0E091A904F09159
:101AD000AA0430E020E0B0E0A0E0309799F42115AE
:101AE000310509F44AC0281B390B24303105D8F5DB
:101AF0008A819B816115710589F1FB019383828342
:101B0000FE0111C04081518102811381481759079C
:101B1000E0F04817590799F4109761F012960C936A
:101B2000129713961C933296CF01DF91CF911F919C
:101B30000F9108950093A9041093AA04F4CF2115DE
:101B4000310551F04217530738F0A901DB019A0122
:101B5000BD01DF01F801C1CFEF01F9CF9093AA04D5
:101B60008093A904CDCFFE01E20FF31F81939193DF
:101B70002250310939832883D7CF2091A70430918F
:101B8000A804232B41F420910201309103013093EA
:101B9000A8042093A7042091000130910101211590
:101BA000310541F42DB73EB7409104015091050134
:101BB000241B350BE091A704F091A804E217F3076A
:101BC000A0F42E1B3F0B2817390778F0AC014E5FAD
:101BD0005F4F2417350748F04E0F5F1F5093A8043E
:101BE0004093A704819391939FCFF0E0E0E09CCFD6
:101BF000CF93DF930097E9F0FC01329713821282B2
:101C0000A091A904B091AA04ED0130E020E0109762
:101C1000A1F420813181820F931F2091A70430917C
:101C2000A8042817390709F061C0F093A804E093CD
:101C3000A704DF91CF910895EA01CE17DF07E8F5F9
:101C40004A815B819E0141155105B1F7E901FB8392
:101C5000EA8349915991C40FD51FEC17FD0761F430
:101C6000808191810296840F951FE9019983888371
:101C7000828193819B838A83F0E0E0E012968D91CC
:101C80009C9113970097B9F52D913C911197CD0137
:101C90000296820F931F2091A7043091A804281761
:101CA000390739F6309751F51092AA041092A90419
:101CB000B093A804A093A704BCCFD383C283408170
:101CC0005181840F951FC817D90761F44E5F5F4F8C
:101CD00088819981480F591F518340838A819B8154
:101CE000938382832115310509F0B0CFF093AA04C4
:101CF000E093A9049ECFFD01DC01C0CF13821282C4
:101D0000D7CFB0E0A0E0E7E8FEE00C94FF0C8C0138
:101D1000009751F4CB010E945C0D8C01C801CDB736
:101D2000DEB7E0E10C941B0DFC01E60FF71F9C01F0
:101D300022503109E217F30708F49DC0D901CD9173
:101D4000DC911197C617D70798F0C530D10530F34D
:101D5000CE0104978617970708F3C61BD70B229767
:101D6000C193D1936D937C93CF010E94F80DD6CF90
:101D70005B01AC1ABD0A4C018C0E9D1EA091A904FA
:101D8000B091AA04512C412CF12CE12C109731F583
:101D90008091A7049091A8048815990509F05CC06A
:101DA0004616570608F058C0809100019091010135
:101DB000009741F48DB79EB7409104015091050101
:101DC000841B950BE817F90708F055C0F093A80499
:101DD000E093A704F90171836083A0CF8D919C915A
:101DE000119712966C90129713967C901397A815E2
:101DF000B90559F56C0142E0C40ED11CCA14DB04CC
:101E000020F1AC014A195B09DA011296159780F0AE
:101E10006282738251834083D9016D937C93E11474
:101E2000F10471F0D7011396FC93EE93129776CFDD
:101E300022968C0F9D1FF90191838083F301EFCFD0
:101E4000F093AA04E093A90469CF4816590608F450
:101E50002C017D01D3019ACFCB010E945C0D7C0146
:101E6000009749F0AE01B8010E943E0FC8010E94E0
:101E7000F80D870153CF10E000E050CFFB01DC01EB
:101E800002C001900D9241505040D8F70895FB01D7
:101E9000DC0101900D920020E1F70895F894FFCF46
:101EA0000000AB048000000040001400540000005B
:101EB00000004501A500D20092010301E100F500F8
:101EC000000000005D03300373042203290326038E
:101ED0002303000000002009A5007304BB020D0AC3
:101EE0000050726F62616E646F3A00507275656285
:101EF00061204D6F646F3A00496E74657272756D42
:101F00007069656E646F207365C3B1616C20494769
:101F100042543A2000507275656261204175746FB9
:101F20006D61746963612E0A094672656375656E39
:101F30006369613A20314B487A0052656772657374
:101F400061723A20422900436F6E6669726D617258
:101F50003A20412900507275656261206175746F85
:101F60006D61746963612E002020314B487A004610
:101F700072656375656E6369613A004F7363696C7E
:101F80006163696F6E20436F6E7374616E74650078
:101F900050727565626120496E7465727275706306
:101FA000696F6E2E00507275656261204D6F646FAF
:101FB0003A0A09496E74657272757063696F6E20B2
:101FC000646520494742540A4672656375656E63CD
:101FD000696120314B487A004573706572616E64A7
:101FE0006F2E2E2E004229496E74657272757063D1
:101FF000696F6E20494742540041294F53432E20B8
:102000004354452E20314B487A0042616E636F2065
:1020100064650053656C6563746F7200566F6C760F
:1020200069656E646F206120005072756562612081
:1020300066696E616C697A6164612E0042414E434B
:102040004F204445205052554542415320534D4165
:102050000042616E636F2044652050727565626155
:102060007320534D4100496E696369616E646F204E
:1020700070726F6772616D6100496E696369616E4C
:10208000646F2C206661766F722065737065726173
:1020900072004573706572652E2E2E00496E69635D
:1020A00069616E646F2E004573706572616E646F56
:1020B0002053656C656363696F6E3A0A0941294173
:1020C00075746F0A0942294D616E75616C00422971
:1020D000204D616E75616C004129204175746F005F
:1020E00053656C656563696F6E65205072756562D6
:0420F000613A000051
:00000001FF
