:100000000C9462000C948A000C948A000C948A0070
:100010000C948A000C948A000C948A000C948A0038
:100020000C948A000C948A000C948A000C948A0028
:100030000C948A000C948A000C948A000C948A0018
:100040000C9484040C948A000C9452040C942C0498
:100050000C948A000C948A000C948A000C948A00F8
:100060000C948A000C948A000000000024002700F1
:100070002A0000000000250028002B0000000000DE
:1000800023002600290004040404040404040202DA
:100090000202020203030303030301020408102007
:1000A0004080010204081020010204081020000012
:1000B0000008000201000003040700000000000027
:1000C00000002B0611241FBECFEFD8E0DEBFCDBF4E
:1000D00022E0A4E8B1E001C01D92AE32B207E1F720
:1000E00011E0A0E0B1E0E6E5F1E102C005900D927B
:1000F000A438B107D9F710E0C2E6D0E004C02197D8
:10010000FE010E94B106C136D107C9F70E94CE0494
:100110000C94A9080C940000AF92BF92CF92DF928A
:10012000EF92FF920F931F93CF93DF936C017B01AC
:100130008B01040F151FEB015E01AE18BF08C0173D
:10014000D10759F06991D601ED91FC910190F081B0
:10015000E02DC6010995892B79F7C501DF91CF9173
:100160001F910F91FF90EF90DF90CF90BF90AF90D5
:100170000895FC01538D448D252F30E0842F90E0AD
:10018000821B930B541710F0CF9608950197089592
:10019000FC01918D828D981761F0A28DAE0FBF2F5B
:1001A000B11D5D968C91928D9F5F9F73928F90E0B1
:1001B00008958FEF9FEF0895FC01918D828D981720
:1001C00031F0828DE80FF11D858D90E008958FEF5D
:1001D0009FEF0895FC01918D228D892F90E0805C26
:1001E0009F4F821B91098F73992708958DE891E0A5
:1001F0000E94EA0021E0892B09F420E0822F089573
:1002000080E090E0892B29F00E94F60081110C9487
:1002100000000895FC01A48DA80FB92FB11DA35AA9
:10022000BF4F2C91848D90E001968F739927848F16
:10023000A689B7892C93A089B1898C918370806439
:100240008C93938D848D981306C00288F389E02DDA
:1002500080818F7D80830895EF92FF920F931F938B
:10026000CF93DF93EC0181E0888F9B8D8C8D981369
:100270001AC0E889F989808185FF15C09FB7F89475
:10028000EE89FF896083E889F989808183708064C1
:1002900080839FBF81E090E0DF91CF911F910F910C
:1002A000FF90EF900895F62E0B8D10E00F5F1F4F1B
:1002B0000F731127E02E8C8D8E110CC00FB607FC2A
:1002C000FACFE889F989808185FFF5CFCE010E94B8
:1002D0000A01F1CFEB8DEC0FFD2FF11DE35AFF4F1B
:1002E000F0829FB7F8940B8FEA89FB898081806246
:1002F000CFCFCF93DF93EC01888D8823B9F0AA8903
:10030000BB89E889F9898C9185FD03C0808186FDD0
:100310000DC00FB607FCF7CF8C9185FFF2CF80811F
:1003200085FFEDCFCE010E940A01E9CFDF91CF9189
:100330000895833081F028F4813099F08230A9F05B
:1003400008958730A9F08830C9F08430B1F48091E5
:1003500080008F7D03C0809180008F778093800024
:10036000089584B58F7784BD089584B58F7DFBCFC4
:100370008091B0008F778093B00008958091B00095
:100380008F7DF9CFCF93DF93282F30E0F901E2552D
:10039000FF4F8491F901E656FF4FD491F901EA57D6
:1003A000FF4FC491CC23A1F081110E949901EC2F41
:1003B000F0E0EE0FFF1FE458FF4FA591B491EC91D0
:1003C000ED2381E090E009F480E0DF91CF91089582
:1003D00080E090E0FACF1F93CF93DF93282F30E097
:1003E000F901E255FF4F8491F901E656FF4FD49190
:1003F000F901EA57FF4FC491CC23A9F0162F8111C0
:100400000E949901EC2FF0E0EE0FFF1FEE58FF4F16
:10041000A591B4918FB7F894EC91111108C0D095C3
:10042000DE23DC938FBFDF91CF911F910895DE2BE8
:10043000F8CFCF93DF9390E0FC01E656FF4F249175
:100440008A579F4FFC0184918823D1F090E0880F58
:10045000991FFC01E859FF4FA591B491FC01EE589A
:10046000FF4FC591D49161110EC09FB7F8948C9144
:10047000E22FE0958E238C932881E223E8839FBFAF
:10048000DF91CF9108958FB7F894EC91E22BEC9324
:100490008FBFF6CF8230910538F0880F991F880FF3
:1004A000991F05970197F1F708953FB7F894809148
:1004B000890190918A01A0918B01B0918C0126B5A0
:1004C000A89B05C02F3F19F00196A11DB11D3FBF8C
:1004D000BA2FA92F982F8827BC01CD01620F711D5B
:1004E000811D911D42E0660F771F881F991F4A9555
:1004F000D1F708958F929F92AF92BF92CF92DF92E1
:10050000EF92FF920E9455024B015C0188EEC82ECB
:1005100083E0D82EE12CF12C0E945502681979094C
:100520008A099B09683E734081059105A8F321E083
:10053000C21AD108E108F10888EE880E83E0981EFF
:10054000A11CB11CC114D104E104F10429F7FF90EE
:10055000EF90DF90CF90BF90AF909F908F900895D5
:1005600061E08BE00E94EB0161E083E00E94EB011F
:1005700061E085E00E94EB0160E08AE00E94EB010F
:1005800060E089E00E94EB0160E086E00E94EB0100
:1005900085E890E00C944A0261E08BE00E94EB0158
:1005A00061E083E00E94EB0161E086E00E94EB01E4
:1005B00060E08AE00E94EB0160E089E00E94EB01CC
:1005C00060E085E00E94EB018EED90E00C944A0221
:1005D00061E08AE00E94EB0161E089E00E94EB01AA
:1005E00061E085E00E94EB0160E08BE00E94EB019E
:1005F00060E083E00E94EB0160E086E00E94EB0196
:1006000085E890E00C944A0261E08AE00E94EB01E8
:1006100061E089E00E94EB0161E086E00E94EB016D
:1006200060E08BE00E94EB0160E083E00E94EB0160
:1006300060E085E00E94EB018EED90E00C944A02B0
:1006400061E08AE00E94EB0161E083E00E94EB013F
:1006500061E086E00E94EB0160E08BE00E94EB012C
:1006600060E089E00E94EB0160E085E00E94EB0120
:100670008CE290E00C944A021F93CF93DF93182FE3
:1006800061E00E94EB01C0E4DFE10E9420030E94D0
:1006900004030E94E8020E9420030E94CC020E94F0
:1006A000B002219791F760E0812FDF91CF911F91E8
:1006B0000C94EB01FC0101900020E9F73197AF01A8
:1006C000481B590BBC018DE891E00C948C00CF9332
:1006D000DF93FC0144815581608171818DE891E057
:1006E0000E948C00EC0188E191E00E945A038C0F7B
:1006F0009D1FDF91CF9108958F929F92AF92BF92ED
:100700000F931F93CF93DF93CDB7DEB7A1970FB6AB
:10071000F894DEBF0FBECDBF19A2423008F44AE004
:100720008E010F5D1F4F842E912CB12CA12CA501A1
:1007300094010E948F06E62FB901CA01EA30F4F451
:10074000E05DD801EE938D01232B242B252B79F727
:1007500090E080E0109719F0CD010E945A03A19615
:100760000FB6F894DEBF0FBECDBFDF91CF911F91C2
:100770000F91BF90AF909F908F900895E95CE1CF6B
:10078000CF93DF93672B79F4682F8DE891E00E9477
:100790002C01EC0188E191E00E945A038C0F9D1F0F
:1007A000DF91CF910895BC01990F880B990B41E01F
:1007B0000E947C03EECFFC0180819181009711F0B3
:1007C0000C9453070895EF92FF920F931F93CF93CA
:1007D000DF93EC017B01198218821B821A821D8231
:1007E0001C82FB0101900020E9F731978F01061B65
:1007F000170BB8016F5F7F4F90E080E00E94DC072D
:100800000097B9F0998388831B830A832C813D81EB
:10081000232B11F4FC0110821D830C83B701888106
:100820009981DF91CF911F910F91FF90EF900C94E0
:10083000A20888819981009711F00E9453071982BC
:1008400018821D821C821B821A82DF91CF911F9118
:100850000F91FF90EF9008951F920F920FB60F9295
:1008600011242F933F934F935F936F937F938F93B5
:100870009F93AF93BF93EF93FF938DE891E00E9416
:100880000A01FF91EF91BF91AF919F918F917F915D
:100890006F915F914F913F912F910F900FBE0F90ED
:1008A0001F9018951F920F920FB60F9211242F933D
:1008B0008F939F93EF93FF93E0919D01F0919E01A1
:1008C0008081E091A301F091A40182FD1BC0908181
:1008D0008091A6018F5F8F732091A701821741F04D
:1008E000E091A601F0E0E357FE4F958F8093A601BB
:1008F000FF91EF919F918F912F910F900FBE0F90CD
:100900001F9018958081F4CF1F920F920FB60F920F
:1009100011242F933F938F939F93AF93BF93809115
:10092000850190918601A0918701B0918801309155
:10093000840123E0230F2D3758F50196A11DB11D29
:10094000209384018093850190938601A093870171
:10095000B09388018091890190918A01A0918B01C7
:10096000B0918C010196A11DB11D809389019093D6
:100970008A01A0938B01B0938C01BF91AF919F919D
:100980008F913F912F910F900FBE0F901F90189550
:1009900026E8230F0296A11DB11DD2CFCF93DF937E
:1009A00000D000D000D0CDB7DEB7789484B5826097
:1009B00084BD84B5816084BD85B5826085BD85B503
:1009C000816085BD80916E00816080936E00109281
:1009D00081008091810082608093810080918100FC
:1009E000816080938100809180008160809380008D
:1009F0008091B10084608093B1008091B0008160EB
:100A00008093B00080917A00846080937A00809116
:100A10007A00826080937A0080917A00816080936E
:100A20007A0080917A00806880937A001092C100E9
:100A3000E0919D01F0919E0182E08083E091990117
:100A4000F0919A011082E0919B01F0919C018FEC52
:100A500080831092A501E091A101F091A20186E0AE
:100A60008083E0919F01F091A0018081806180836B
:100A7000E0919F01F091A001808188608083E091E6
:100A80009F01F091A001808180688083E0919F01A7
:100A9000F091A00180818F7D808382E390E0A0E0CF
:100AA000B0E08093910190939201A0939301B09351
:100AB00094018BE191E00E945A0388E191E00E9449
:100AC0005A0361E08AE00E94190261E08BE00E9413
:100AD000190261E083E00E94190261E089E00E944E
:100AE000190261E086E00E94190261E085E00E943F
:100AF000190261E08DE00E94190261E08CE00E9421
:100B0000190261E088E00E94190261E087E00E941A
:100B1000190261E084E00E94190261E082E00E9413
:100B2000190260E08EE00E94190260E08FE00E94EE
:100B3000190280E0C82E80E0D82E8EE00E94C2010B
:100B40007C018FE00E94C2018C01E114F10421F1CB
:100B5000892B09F061C060E371E0CE0101960E942B
:100B6000E303CE0101960E946703CE0101960E9425
:100B7000DB0370E060E081E090E00E94C0030E942F
:100B800020030E9404030E94E8020E9420030E94A6
:100B9000CC020E94B002F3CF892BF1F165E571E040
:100BA000CE0101960E94E303CE0101960E946703E5
:100BB000CE0101960E94DB0361E070E090E080E0EE
:100BC0000E94C0038DE00E943C030E947A028CE0E8
:100BD0000E943C030E947A0288E00E943C030E942B
:100BE0007A0287E00E943C030E947A0284E00E941D
:100BF0003C030E947A0282E00E943C030E947A0237
:100C0000C114D10409F499CF0E94F600882309F495
:100C100094CF0E94000091CF66E771E0CE0101966B
:100C20000E94E303CE0101960E946703CE01019664
:100C30000E94DB0361E070E0012B11F470E060E0E2
:100C400081E090E0EF2811F490E080E00E94C00382
:100C50000E947A0272CFEDE8F1E01382128288EEF0
:100C600093E0A0E0B0E084839583A683B7838AE015
:100C700091E09183808385EC90E09587848784EC74
:100C800090E09787868780EC90E0918B808B81EC59
:100C900090E0938B828B82EC90E0958B848B86EC3A
:100CA00090E0978B868B118E128E138E148E089582
:100CB0002F923F924F925F926F927F928F929F926C
:100CC000AF92BF92CF92DF92EF92FF920F931F935A
:100CD000CF93DF93CDB7DEB7CA1BDB0B0FB6F8940B
:100CE000DEBF0FBECDBF09942A88398848885F844B
:100CF0006E847D848C849B84AA84B984C884DF80BC
:100D0000EE80FD800C811B81AA81B981CE0FD11D9F
:100D10000FB6F894DEBF0FBECDBFED010895A1E27E
:100D20001A2EAA1BBB1BFD010DC0AA1FBB1FEE1F65
:100D3000FF1FA217B307E407F50720F0A21BB30BB0
:100D4000E40BF50B661F771F881F991F1A9469F72C
:100D500060957095809590959B01AC01BD01CF0188
:100D60000895EE0FFF1F0590F491E02D09940F9365
:100D70001F93CF93DF938230910510F482E090E0CF
:100D8000E0912C02F0912D0230E020E0B0E0A0E0F4
:100D9000309799F42115310509F44AC0281B390B05
:100DA00024303105D8F58A819B816115710589F15F
:100DB000FB0193838283FE0111C040815181028136
:100DC000138148175907E0F04817590799F410970D
:100DD00061F012960C93129713961C933296CF01E2
:100DE000DF91CF911F910F91089500932C021093E2
:100DF0002D02F4CF2115310551F04217530738F079
:100E0000A901DB019A01BD01DF01F801C1CFEF01AA
:100E1000F9CF90932D0280932C02CDCFFE01E20FEB
:100E2000F31F819391932250310939832883D7CFBF
:100E300020912A0230912B02232B41F420910201B0
:100E40003091030130932B0220932A02209100015C
:100E5000309101012115310541F42DB73EB7409184
:100E6000040150910501241B350BE0912A02F091F9
:100E70002B02E217F307A0F42E1B3F0B28173907AC
:100E800078F0AC014E5F5F4F2417350748F04E0FE6
:100E90005F1F50932B0240932A02819391939FCF1F
:100EA000F0E0E0E09CCFCF93DF930097E9F0FC0106
:100EB000329713821282A0912C02B0912D02ED0183
:100EC00030E020E01097A1F420813181820F931F40
:100ED00020912A0230912B022817390709F061C0AE
:100EE000F0932B02E0932A02DF91CF910895EA015B
:100EF000CE17DF07E8F54A815B819E014115510558
:100F0000B1F7E901FB83EA8349915991C40FD51FD9
:100F1000EC17FD0761F4808191810296840F951F83
:100F2000E90199838883828193819B838A83F0E09E
:100F3000E0E012968D919C9113970097B9F52D9151
:100F40003C911197CD010296820F931F20912A02A6
:100F500030912B022817390739F6309751F5109246
:100F60002D0210922C02B0932B02A0932A02BCCF28
:100F7000D383C28340815181840F951FC817D9073D
:100F800061F44E5F5F4F88819981480F591F5183EB
:100F900040838A819B81938382832115310509F0E7
:100FA000B0CFF0932D02E0932C029ECFFD01DC0127
:100FB000C0CF13821282D7CFB0E0A0E0E2EEF7E01C
:100FC0000C945A068C01009751F4CB010E94B7068D
:100FD0008C01C801CDB7DEB7E0E10C947606FC01C8
:100FE000E60FF71F9C0122503109E217F30708F4BE
:100FF0009DC0D901CD91DC911197C617D70798F004
:10100000C530D10530F3CE0104978617970708F352
:10101000C61BD70B2297C193D1936D937C93CF01BD
:101020000E945307D6CF5B01AC1ABD0A4C018C0E4F
:101030009D1EA0912C02B0912D02512C412CF12C1F
:10104000E12C109731F580912A0290912B0288159E
:10105000990509F05CC04616570608F058C0809103
:10106000000190910101009741F48DB79EB7409126
:10107000040150910501841B950BE817F90708F04E
:1010800055C0F0932B02E0932A02F901718360832B
:10109000A0CF8D919C91119712966C9012971396F8
:1010A0007C901397A815B90559F56C0142E0C40E60
:1010B000D11CCA14DB0420F1AC014A195B09DA0126
:1010C0001296159780F06282738251834083D90112
:1010D0006D937C93E114F10471F0D7011396FC93A6
:1010E000EE93129776CF22968C0F9D1FF901918374
:1010F0008083F301EFCFF0932D02E0932C0269CFB0
:101100004816590608F42C017D01D3019ACFCB0172
:101110000E94B7067C01009749F0AE01B8010E9419
:101120009908C8010E945307870153CF10E000E0DF
:1011300050CFFB01DC0102C001900D9241505040A4
:10114000D8F70895FB01DC0101900D920020E1F732
:061150000895F894FFCFA2
:1011560000002E028000000000002C018C00B90067
:101166007901EA00C800DC000D0A0042414E434FF7
:10117600204445205052554542415320534D41008D
:10118600507275656261204175746F6D6174696333
:10119600612E0A094672656375656E6369613A2058
:1011A600314B487A00507275656261204D616E75EB
:1011B600616C2E0A457374616D736F20656E2065D0
:1011C600736F2E2E2E004573706572616E646F2EDE
:0411D6002E2E0000B9
:00000001FF
