:100000000C9462000C948A000C948A000C948A0070
:100010000C948A000C948A000C948A000C948A0038
:100020000C948A000C948A000C948A000C948A0028
:100030000C948A000C948A000C948A000C948A0018
:100040000C94AF030C948A000C947D030C9457031A
:100050000C948A000C948A000C948A000C948A00F8
:100060000C948A000C948A000000000024002700F1
:100070002A0000000000250028002B0000000000DE
:1000800023002600290004040404040404040202DA
:100090000202020203030303030301020408102007
:1000A0004080010204081020010204081020000012
:1000B0000008000201000003040700000000000027
:1000C0000000C90411241FBECFEFD8E0DEBFCDBFB2
:1000D00011E0A0E0B1E0E0E4FAE002C005900D928A
:1000E000A633B107D9F721E0A6E3B1E001C01D9224
:1000F000AC3DB207E1F710E0C2E6D0E004C02197C2
:10010000FE010E941805C136D107C9F70E94F90304
:100110000C941E050C940000AF92BF92CF92DF9218
:10012000EF92FF920F931F93CF93DF936C017B01AC
:100130008B01040F151FEB015E01AE18BF08C0173D
:10014000D10759F06991D601ED91FC910190F081B0
:10015000E02DC6010995892B79F7C501DF91CF9173
:100160001F910F91FF90EF90DF90CF90BF90AF90D5
:100170000895FC01538D448D252F30E0842F90E0AD
:10018000821B930B541710F0CF9608950197089592
:10019000FC01918D828D981761F0A28DAE0FBF2F5B
:1001A000B11D5D968C91928D9F5F9F73928F90E0B1
:1001B00008958FEF9FEF0895FC01918D828D981720
:1001C00031F0828DE80FF11D858D90E008958FEF5D
:1001D0009FEF0895FC01918D228D892F90E0805C26
:1001E0009F4F821B91098F73992708958FE391E0A8
:1001F0000E94EA0021E0892B09F420E0822F089573
:1002000080E090E0892B29F00E94F60081110C9487
:1002100000000895FC01A48DA80FB92FB11DA35AA9
:10022000BF4F2C91848D90E001968F739927848F16
:10023000A689B7892C93A089B1898C918370806439
:100240008C93938D848D981306C00288F389E02DDA
:1002500080818F7D80830895EF92FF920F931F938B
:10026000CF93DF93EC0181E0888F9B8D8C8D981369
:100270001AC0E889F989808185FF15C09FB7F89475
:10028000EE89FF896083E889F989808183708064C1
:1002900080839FBF81E090E0DF91CF911F910F910C
:1002A000FF90EF900895F62E0B8D10E00F5F1F4F1B
:1002B0000F731127E02E8C8D8E110CC00FB607FC2A
:1002C000FACFE889F989808185FFF5CFCE010E94B8
:1002D0000A01F1CFEB8DEC0FFD2FF11DE35AFF4F1B
:1002E000F0829FB7F8940B8FEA89FB898081806246
:1002F000CFCFCF93DF93EC01888D8823B9F0AA8903
:10030000BB89E889F9898C9185FD03C0808186FDD0
:100310000DC00FB607FCF7CF8C9185FFF2CF80811F
:1003200085FFEDCFCE010E940A01E9CFDF91CF9189
:100330000895833081F028F4813099F08230A9F05B
:1003400008958730A9F08830C9F08430B1F48091E5
:1003500080008F7D03C0809180008F778093800024
:10036000089584B58F7784BD089584B58F7DFBCFC4
:100370008091B0008F778093B00008958091B00095
:100380008F7DF9CFCF93DF93282F30E0F901E2552D
:10039000FF4F8491F901E656FF4FD491F901EA57D6
:1003A000FF4FC491CC23A1F081110E949901EC2F41
:1003B000F0E0EE0FFF1FE458FF4FA591B491EC91D0
:1003C000ED2381E090E009F480E0DF91CF91089582
:1003D00080E090E0FACF1F93CF93DF93282F30E097
:1003E000F901E255FF4F8491F901E656FF4FD49190
:1003F000F901EA57FF4FC491CC23A9F0162F8111C0
:100400000E949901EC2FF0E0EE0FFF1FEE58FF4F16
:10041000A591B4918FB7F894EC91111108C0D095C3
:10042000DE23DC938FBFDF91CF911F910895DE2BE8
:10043000F8CFCF93DF9390E0FC01E656FF4F249175
:100440008A579F4FFC0184918823D1F090E0880F58
:10045000991FFC01E859FF4FA591B491FC01EE589A
:10046000FF4FC591D49161110EC09FB7F8948C9144
:10047000E22FE0958E238C932881E223E8839FBFAF
:10048000DF91CF9108958FB7F894EC91E22BEC9324
:100490008FBFF6CF3FB7F89480913B0190913C011C
:1004A000A0913D01B0913E0126B5A89B05C02F3F0C
:1004B00019F00196A11DB11D3FBFBA2FA92F982F8A
:1004C0008827BC01CD01620F711D811D911D42E085
:1004D000660F771F881F991F4A95D1F708958F924D
:1004E0009F92AF92BF92CF92DF92EF92FF920E94C3
:1004F0004A024B015C018FE0C82ED12CE12CF12C7B
:100500000E944A02681979098A099B09683E73406A
:1005100081059105A8F321E0C21AD108E108F1088C
:1005200088EE880E83E0981EA11CB11CC114D10472
:10053000E104F10429F7FF90EF90DF90CF90BF9096
:10054000AF909F908F900895FC0101900020E9F7F3
:100550003197AF01481B590BBC018FE391E00C941C
:100560008C008F929F92AF92BF92CF92DF92EF92C8
:10057000FF920F931F93CF93DF93CDB7DEB7A19771
:100580000FB6F894DEBF0FBECDBF6C01990FEE0819
:10059000FF08F7FE47C06DE28FE391E00E942C0157
:1005A0008C0122273327A9012C193D094E095F0927
:1005B00019A2CE0181967C019AE0892E912CA12C62
:1005C000B12CCA01B901A50194010E94F604605D35
:1005D000F70162937F01211531054105510589F726
:1005E00090E080E0309719F0CF010E94A402080F3C
:1005F000191F82E191E00E94A402800F911FA19631
:100600000FB6F894DEBF0FBECDBFDF91CF911F9123
:100610000F91FF90EF90DF90CF90BF90AF909F90A1
:100620008F900895A701960119A28E010F5D1F4FAB
:100630008AE0C82ED12CE12CF12CCA01B901A70106
:1006400096010E94F604605DF80162938F01211506
:1006500031054105510589F7309729F0CF010E94F6
:10066000A4028C01C6CF10E000E0C3CFEF92FF924E
:100670000F931F93CF93DF9382E00E94C2017C010E
:1006800084E00E94C2018C0187E00E94C201EC015B
:10069000C7010E94B102C8010E94B102CE01DF91E0
:1006A000CF911F910F91FF90EF900C94B1021F9288
:1006B0000F920FB60F9211242F933F934F935F9396
:1006C0006F937F938F939F93AF93BF93EF93FF931A
:1006D0008FE391E00E940A01FF91EF91BF91AF91EA
:1006E0009F918F917F916F915F914F913F912F914A
:1006F0000F900FBE0F901F9018951F920F920FB67C
:100700000F9211242F938F939F93EF93FF93E09178
:100710004F01F09150018081E0915501F091560117
:1007200082FD1BC09081809158018F5F8F73209153
:100730005901821741F0E0915801F0E0E15CFE4F71
:10074000958F80935801FF91EF919F918F912F91F9
:100750000F900FBE0F901F9018958081F4CF1F92BD
:100760000F920FB60F9211242F933F938F939F9365
:10077000AF93BF938091370190913801A0913901D7
:10078000B0913A013091360123E0230F2D3758F50F
:100790000196A11DB11D20933601809337019093DE
:1007A0003801A0933901B0933A0180913B019091B7
:1007B0003C01A0913D01B0913E010196A11DB11DEA
:1007C00080933B0190933C01A0933D01B0933E0187
:1007D000BF91AF919F918F913F912F910F900FBE3D
:1007E0000F901F90189526E8230F0296A11DB11DAA
:1007F000D2CF789484B5826084BD84B5816084BD95
:1008000085B5826085BD85B5816085BD80916E00AE
:10081000816080936E0010928100809181008260DF
:10082000809381008091810081608093810080911C
:1008300080008160809380008091B100846080930B
:10084000B1008091B00081608093B00080917A0007
:10085000846080937A0080917A00826080937A002D
:1008600080917A00816080937A0080917A0080681C
:1008700080937A001092C100E0914F01F0915001F5
:1008800082E08083E0914B01F0914C011082E09175
:100890004D01F0914E018FEC808310925701E09151
:1008A0005301F091540186E08083E0915101F09171
:1008B0005201808180618083E0915101F091520169
:1008C000808188608083E0915101F09152018081A4
:1008D00080688083E0915101F091520180818F7D89
:1008E000808361E083E00E94190261E085E00E945C
:1008F000190261E086E00E94190260E082E00E9435
:10090000190260E084E00E94190260E087E00E9422
:10091000190200E010E0C8EBDBE085E191E00E9405
:10092000A40282E191E00E94A40261E083E00E94BF
:10093000EB0160E085E00E94EB0161E086E00E944F
:10094000EB010E9436030E946F0285E291E00E9453
:10095000A40282E191E00E94A40260E083E00E9490
:10096000EB0161E085E00E94EB0160E086E00E941F
:10097000EB010E9436030E946F02219771F6011568
:10098000110549F20E94F600882329F20E94000016
:10099000C2CFEFE3F1E01382128288EE93E0A0E091
:1009A000B0E084839583A683B78384E091E091834C
:1009B000808385EC90E09587848784EC90E097872E
:1009C000868780EC90E0918B808B81EC90E0938B1C
:1009D000828B82EC90E0958B848B86EC90E0978BF9
:1009E000868B118E128E138E148E0895A1E21A2E0C
:1009F000AA1BBB1BFD010DC0AA1FBB1FEE1FFF1FC3
:100A0000A217B307E407F50720F0A21BB30BE40B12
:100A1000F50B661F771F881F991F1A9469F7609559
:100A20007095809590959B01AC01BD01CF01089513
:100A3000EE0FFF1F0590F491E02D0994F894FFCF7D
:100A4000000000002C018C00B9007901EA00C80008
:100A5000DC000D0A007072696D657253656D694343
:100A600069636C6F00736567756E646F53656D695C
:060A70004369636C6F0096
:00000001FF
